:100000000C9449000C9466000C9466000C946600F5
:100010000C9466000C9466000C9466000C946600C8
:100020000C9466000C9466000C9466000C947103AA
:100030000C9466000C9466000C9466000C946600A8
:100040000C9466000C9466000C9466000C942704D3
:100050000C9466002005060508050A0521050C0517
:1000600021050E05100512051405160518051A05BB
:100070001C051E05506C79746120416E616C6F67C0
:100080002D43796672612076312E332073342E3100
:10009000000011241FBECFE5D4E0DEBFCDBF10E0CD
:1000A000A0E6B0E0ECEEF6E202C005900D92A43AB4
:1000B000B107D9F723E0A4EAB0E001C01D92A7364A
:1000C000B207E1F70E94C2080C9474130C9400006C
:1000D0000F931F93CF93DF93182F062FD42FC3E0D6
:1000E000E091A600F091A7004D2F602F812F099578
:1000F000E091A400F091A500602F812F0995C150D7
:1001000021F0D813EDCFC0E002C0D813C3E08C2F8C
:10011000DF91CF911F910F910895CF92DF92EF92CF
:10012000FF921F93CF93DF93182F7B01C0E0D0E0A5
:10013000E091A400F091A5006D2F812F0995670132
:10014000F701408184130AC0FFEFEF1AFF0AF6019E
:100150008081C80FDF5FD83059F708C06D2F812F1D
:100160000E946800882381F383E00FC04C2F68E071
:10017000812F0E9468008111F7CF4C2F409569E0D4
:10018000812F0E9468008111EFCFDF91CF911F91E5
:10019000FF90EF90DF90CF900895EF92FF921F9322
:1001A000CF93DF93182F7B01C0E0D0E0E091A40053
:1001B000F091A5006D2F812F0995F70181937F01A3
:1001C000C80FDF5FD83091F7E091A400F091A5004F
:1001D00068E0812F0995C81711F082E00BC0E0910B
:1001E000A400F091A50069E0812F0995C095C8137E
:1001F000F4CF80E0DF91CF911F91FF90EF900895B1
:100200009093A7008093A6007093A5006093A4002C
:100210000895823020F0843020F40C948D0084E026
:10022000089581E00895843010F40C94CD0081E0AD
:100230000895CF93DF93CDB7DEB728970FB6F89424
:10024000DEBF0FBECDBFBE016F5F7F4F98E0FB01E9
:1002500011929A95E9F7843018F40E948D0001C03C
:1002600081E028960FB6F894DEBF0FBECDBFDF91B8
:10027000CF910895FF920F931F93CF93DF93CDB744
:10028000DEB728970FB6F894DEBF0FBECDBF68303B
:10029000C0F4F42E062F182FBE016F5F7F4F0E940F
:1002A000130181110FC0E1E0F0E0EC0FFD1FE00F42
:1002B000F11DF082BE016F5F7F4F812F0E94090107
:1002C00001C081E028960FB6F894DEBF0FBECDBF07
:1002D000DF91CF911F910F91FF900895EF92FF92C0
:1002E0001F93CF93DF93CDB7DEB728970FB6F8945F
:1002F000DEBF0FBECDBF6830A0F47A01162FBE015D
:100300006F5F7F4F0E94130181110CC0E1E0F0E0AC
:10031000EC0FFD1FE10FF11D8081F701808380E06C
:1003200001C081E028960FB6F894DEBF0FBECDBFA6
:10033000DF91CF911F91FF90EF900895CF92DF92C0
:10034000FF920F931F93CF93DF93CDB7DEB728971C
:100350000FB6F894DEBF0FBECDBF00E010E0F12C69
:10036000CC24C394D12CBE016F5F7F4F802F0E949D
:100370001301882339F0C601002E01C0880F0A94AA
:10038000EAF7F82A0F5F1F4F0330110561F78F2D31
:1003900028960FB6F894DEBF0FBECDBFDF91CF9188
:1003A0001F910F91FF90DF90CF9008951F93CF93EF
:1003B000DF93CDB7DEB728970FB6F894DEBF0FBE38
:1003C000CDBF882381F0182FBE016F5F7F4F80E083
:1003D0000E94CD00811108C01983BE016F5F7F4F5D
:1003E0000E948D0001C081E028960FB6F894DEBF10
:1003F0000FBECDBFDF91CF911F9108950F931F9333
:10040000CF93DF93CDB7DEB728970FB6F894DEBF52
:100410000FBECDBF8C01BE016F5F7F4F80E00E9499
:10042000CD009981F8019083811103C081E0911181
:1004300080E028960FB6F894DEBF0FBECDBFDF91E7
:10044000CF911F910F9108951F93CF93DF93CDB755
:10045000DEB728970FB6F894DEBF0FBECDBF9FEF73
:10046000980F9E3080F4182FBE016F5F7F4F80E0A1
:100470000E94CD00811108C01A83BE016F5F7F4FBB
:100480000E948D0001C081E028960FB6F894DEBF6F
:100490000FBECDBFDF91CF911F9108950F931F9392
:1004A000CF93DF93CDB7DEB728970FB6F894DEBFB2
:1004B0000FBECDBF8C01BE016F5F7F4F80E00E94F9
:1004C000CD009A81F8019083811103C081E09111E0
:1004D00080E028960FB6F894DEBF0FBECDBFDF9147
:1004E000CF911F910F910895FF920F931F93CF9378
:1004F000DF93CDB7DEB728970FB6F894DEBF0FBEF7
:10050000CDBF9FEF940F9336E0F49FEF960F9C3092
:10051000C0F49FEF980F9F31A0F4142F062FF82EF0
:10052000BE016F5F7F4F80E00E94CD0081110AC045
:10053000FE820F831887BE016F5F7F4F0E948D0080
:1005400001C081E028960FB6F894DEBF0FBECDBF84
:10055000DF91CF911F910F91FF900895FF920F931C
:100560001F93CF93DF93CDB7DEB728970FB6F894DC
:10057000DEBF0FBECDBF9FEF940F9336E0F49FEF29
:10058000960F9C30C0F49FEF980F9F31A0F4142F6A
:10059000062FF82EBE016F5F7F4F80E00E94CD00D6
:1005A00081110AC0FB820C831D83BE016F5F7F4FE8
:1005B0000E948D0001C081E028960FB6F894DEBF3E
:1005C0000FBECDBFDF91CF911F910F91FF90089586
:1005D000CF92DF92EF92FF920F931F93CF93DF930F
:1005E000CDB7DEB728970FB6F894DEBF0FBECDBFEC
:1005F0006C017B018A01BE016F5F7F4F80E00E942A
:10060000CD003B81F60130832C81F70120839D8151
:10061000F8019083811107C081E0332321F0222368
:1006200011F0911180E028960FB6F894DEBF0FBE4E
:10063000CDBFDF91CF911F910F91FF90EF90DF9091
:10064000CF9008951F93CF93DF93CDB7DEB7289750
:100650000FB6F894DEBF0FBECDBF833088F4182FDD
:10066000BE016F5F7F4F81E00E94CD00811109C004
:100670001983BE016F5F7F4F81E00E948D0001C032
:1006800081E028960FB6F894DEBF0FBECDBFDF9194
:10069000CF911F9108950F931F93CF93DF93CDB701
:1006A000DEB728970FB6F894DEBF0FBECDBF8C0122
:1006B000BE016F5F7F4F81E00E94CD009981F801FC
:1006C0009083811103C081E0911180E028960FB6DC
:1006D000F894DEBF0FBECDBFDF91CF911F910F9178
:1006E00008951F920F920FB60F9211242F933F93EC
:1006F0004F935F938F939F93EF93FF938CB12091D0
:10070000EC023091ED02A9014F5F5F4F5093ED0273
:100710004093EC02F901EC58FD4F80839091530215
:10072000980F90935302AC982091EC023091ED0217
:100730002130310541F4853531F010925302109289
:10074000ED021092EC022091EC023091ED02223089
:10075000310569F41092AB001092AA0091E09093D9
:10076000AD00282F30E03093B1002093B0002091ED
:10077000EC023091ED0223303105B1F42091B0004C
:100780003091B100382B3093B1002093B00020910C
:10079000B0003091B1002937310530F028E730E062
:1007A0003093B1002093B0004091EC025091ED02E3
:1007B0002091B0003091B10042175307D9F5109243
:1007C000AB001092AA001092AD0090915302981BBA
:1007D00090935302909177028091AF00981751F057
:1007E000909177028091AE00981721F08091770266
:1007F0008F3FC9F480917802833021F08091780294
:10080000811111C0E091EC02F091ED02ED58FD4F25
:10081000908180915302981306C081E08093660313
:10082000AE9AAD9801C0AC9A109253021092ED02AC
:100830001092EC02FF91EF919F918F915F914F91F8
:100840003F912F910F900FBE0F901F9018951F9200
:100850000F920FB60F9211248F939F938091AD004A
:10086000882301F18091AA009091AB0001969093AA
:10087000AB008093AA008091AA009091AB000A97E8
:1008800088F01092AB001092AA001092AD00109266
:10089000B1001092B000109253021092ED0210922B
:1008A000EC02AC9A9F918F910F900FBE0F901F900A
:1008B000189584B38F6084BBAA9AAA98AA9A0895BF
:1008C000F89421E2A99A35E03A95F1F7000060FF2B
:1008D00002C0AB9A01C0AB9835E03A95F1F7000041
:1008E000A998969587957795679535E03A95F1F7AC
:1008F0000000215039F7A89A85E08A95F1F70000A9
:10090000A898789408950F931F93E62F883060F489
:1009100027E030E08901081B1109C801880F2FE08A
:1009200030E0281B31090DC098EF980F983090F5F2
:100930002FE030E0A901481B5109440F4F5F241BF1
:100940003109220F331F83E090E0A0E0B0E0022ED7
:1009500004C0880F991FAA1FBB1F0A94D2F7AC01CD
:10096000BD0140955095609570958E2F90E0A0E068
:10097000B0E004C0880F991FAA1FBB1F2A95D2F7A9
:100980008A019B01082B192B2A2B3B2BC901B8018B
:100990000E9460048FE193E00197F1F700C000002E
:1009A0001F910F91089587B3886187BB88B38861D1
:1009B00088BB87B3806A87BB83E58DB908958FB9FB
:1009C00081E08093AC00779904C08091AC008111E4
:1009D000FACF08951FB881E08093AC00779904C0E6
:1009E0008091AC008111FACF8FB10895CF9361301F
:1009F00011F496E001C090E0482F50E040315105DD
:100A000000F5FA01E65DFF4F0C941C108AE019C056
:100A10008EE017C089E015C082E013C081E011C0EC
:100A20008DE00FC08BE00DC08FE00BC088E009C0E7
:100A300085E007C083E005C087E003C080E001C017
:100A40008CE0F894883080F440E2849F9001112477
:100A5000C498892F822B0E94DF040E94EA04C82FC9
:100A60000E94EA04C49A12C0803170F48295880F03
:100A7000807EC398892B0E94DF040E94EA04C82F5D
:100A80000E94EA04C39A02C080E0C0E0789490E03B
:100A90009C2BCF9108952F923F924F925F926F922D
:100AA0007F928F929F92AF92BF92CF92DF92EF92FE
:100AB000FF920F931F93CF93DF9300D000D01F922C
:100AC000CDB7DEB789836A835C834B8363E00E9482
:100AD000830483E0EB81FC81808394E1692E712C97
:100AE000512C812C912C1D821B82212C312C412CCC
:100AF0006A8189810E94F6049C0140E050E060E038
:100B000070E080E090E0A52CB82CC92CDD80EB8053
:100B1000F22C032D142D0E948110522E832E942E20
:100B20005D836B83272E382E492E8FE891E0019745
:100B3000F1F700C0000091E0691A7108C9F684E17C
:100B4000A82EB12CC12CD12CE12CF12C00E010E00E
:100B5000252D382D492D5D816B81722D832D942D8E
:100B60000E942410C9010F900F900F900F900F90CA
:100B7000DF91CF911F910F91FF90EF90DF90CF9079
:100B8000BF90AF909F908F907F906F905F904F90AD
:100B90003F902F9008952F923F924F925F926F92C5
:100BA0007F928F929F92AF92BF92CF92DF92EF92FD
:100BB000FF920F931F93CF93DF93CDB7DEB7C65449
:100BC000D1090FB6F894DEBF0FBECDBF8CAFF62EA5
:100BD00027965FAF4EAF279783E08BAB909177025C
:100BE0008091AF00981309C0AE014D5C5F4F61E08A
:100BF0008CAD0E944B051C0113C09091770280912F
:100C0000AE0098130BC0AE014D5C5F4F61E08CAD40
:100C10000E944B051C0108E010E004C0212C312C7F
:100C200000E010E02BA922962FAF2297243058F431
:100C300084E0289FF0011124ED56FF4F4080518041
:100C40006280738003C0412C512C320189EB809368
:100C500001018EEB80930201F11087C0C101A0E079
:100C6000B0E088AF99AFAAAFBBAFBC01CD010E9485
:100C7000B80E6CAB7DAB8EAB9FAB9B01AC01C301DF
:100C8000B2010E94560F0E94890E6B017C019CAD3F
:100C9000090F111D86E1809FF001819FF00D112445
:100CA000ED50FF4FEC0DFD1D1081618170E0611B67
:100CB0007109072E000C880B990B0E94BA0EA30134
:100CC00092010E94560F4B015C01612F70E080E0A1
:100CD00090E00E94B80E21966CAF7DAF8EAF9FAFB3
:100CE0002197B60180E090E00E94B80EA301920126
:100CF0000E94DB0DA50194010E94560F9B01AC01DF
:100D000021966CAD7DAD8EAD9FAD21970E946E0D8D
:100D10006B017C01A50194016CA97DA98EA99FA9F5
:100D20000E94560F9B01AC01C701B6010E946F0DD6
:100D30000E94C30F0E94890E162F88AD99ADAAADEF
:100D4000BBAD810F911DA11DB11D8F379105A1056F
:100D5000B10568F00097A140B10560F4C1018F575B
:100D600091091C01210E311C08C010E006C0212C85
:100D7000312C03C022242A94322CB10180E090E06F
:100D80000E94B80E20E030E44CE156E40E94560F79
:100D9000A30192010E94560F0E94520E2CAB38AF55
:100DA0004DAF23965FAF239724966FAF2497259678
:100DB0007FAF25974C011F921F931F922296FFAD84
:100DC0002297FF9380E1A82E97E2B92EC12CD12C57
:100DD000E12CF12C00E010E02CA938AD4DAD2396AC
:100DE0005FAD239724966FAD249725967FAD259709
:100DF000C4010E9422103F932F932CA938AD4DAD12
:100E000023965FAD239724966FAD249725967FADEB
:100E10002597C4010E9424103F932F931F922CAD5D
:100E20002F9381E690E09F938F938E010F5F1F4F6A
:100E30001F930F930E948A10C8010E94620D27968B
:100E4000AEADBFAD27974D925D926D927C92139798
:100E50000FB6F894DEBF0FBECDBFC101CA5BDF4F36
:100E60000FB6F894DEBF0FBECDBFDF91CF911F91BB
:100E70000F91FF90EF90DF90CF90BF90AF909F9039
:100E80008F907F906F905F904F903F902F9008953C
:100E9000D09AD89A84B3806784BBAC9A81B38660B9
:100EA00081BB82B38A6082BB81B38F7081BB82B306
:100EB000806F82BB08950E9459040E94D30489B7B1
:100EC000826089BF83B78B6083BF8AEF8CBF089530
:100ED0008AB188698AB980B5866880BD89E189B997
:100EE000089584B7817004B602FC826004B603FCE6
:100EF000846004B601FC886014BE0895FC018491EE
:100F0000A7E0319691E09A0F882339F0B0E0A25122
:100F1000BD4F8C938491A92FF4CF9093EF02089545
:100F200081508E3030F4E82FF0E0EB57FF4F808196
:100F3000089589E10895E199FECF9FBB8EBB6DBBFB
:100F4000E29AE19A0895262F30E0642FA9017AE011
:100F5000879F400D511D1124CA010C949B07E199F4
:100F6000FECF9FBB8EBBE09A8DB308950F931F9366
:100F7000CF93DF938C01C62FD3E06C2FC8010E9462
:100F80009B07C8010E94AF07982FD15019F0C813D2
:100F9000F4CF03C081E0C91301C080E0DF91CF919D
:100FA0001F910F91089570E09B014AE0849F200DEE
:100FB000311D1124C9010C94AF0720EA3FE00097CE
:100FC00029F0F9013197F1F70197F9CF0895962F9C
:100FD000803180F4663170F4642F292F36E1839FCD
:100FE000C0011124C296820F911D0E94B607811183
:100FF00003C0089581E0089583E00895DF92EF92A1
:10100000FF920F931F93CF93DF93D82EE62EF42EEB
:10101000D22F02E310E0C0E0C8010E94AF07C80F62
:101020000F5F1F4F023981E01807B1F7CD1123C0C0
:101030006C2F82E991E00E94B607882311F0C3E08B
:101040001DC06C2F609583E991E00E94B607C82F00
:101050008111F5CF4E2D6F2D8D2F0E94740281309E
:1010600061F0882311F0C5E009C081E00E942203ED
:101070008111F9CF03C0C2E001C0C1E08C2FDF9124
:10108000CF911F910F91FF90EF90DF900895AF9255
:10109000BF92CF92DF92EF92FF921F93CF93DF9395
:1010A0001F92CDB7DEB7CE0101960E944B0382306E
:1010B00010F085E048C0813039F482E00E942203BC
:1010C0008111F7CF86E03FC089818230D9F381302A
:1010D00011F080E038C082E3E82EF12C10E0C12C42
:1010E000D12C570182E3A81AB108C6018E0D9F1DAD
:1010F0000E94AF07180FF601EA0DFB1DED50FF4FE0
:1011000080838FEFC81AD80A86E1C816D10469F720
:1011100086E1E80EF11C82E9E81681E0F806F9F6AE
:1011200082E991E00E94AF07181307C083E991E0BC
:101130000E94AF071095181761F282E00E94220307
:101140008111B7CF82E00F90DF91CF911F91FF9077
:10115000EF90DF90CF90BF90AF90089543EF50E0B5
:1011600020E13FE780E090E0FA01E80FF91F3083CB
:10117000019686319105C1F721504A5E5F4F2111DA
:10118000F1CF0895CF93DF93CDB7DEB76D970FB64C
:10119000F894DEBF0FBECDBFA89563ED77E083EA7C
:1011A00097E00E94000184EF91E00E94DD070E9419
:1011B00048070E945B070E946807A89585B7816071
:1011C00085BF15BE0E949E01982E80FD09C0CE01EC
:1011D00001960E944E0289810E949007882E02C0CB
:1011E000B3E08B2E0E944708882329F00E94AE08A6
:1011F000292D2068922E849B05C08091AF008062CB
:101200008093AF00859B05C08091AF008061809383
:10121000AF00869B05C08091AF0088608093AF00CF
:10122000879B05C08091AF0084608093AF00809160
:10123000AF0081608093AE0085E58093EE0283E08D
:101240008093F2021092F4026FEF7FEFCB010E94C5
:101250006004789431E03C8F1B8EA9E06A2E2E0149
:1012600049E0440E511C8091A8009091A900892B5F
:1012700031F4992009F493C0AD9AAE9890C01092C1
:10128000600064E572E07A8B698B82EB90E09E8768
:101290008D87A3EDB0E0B88BAF87212C312C2D8E3C
:1012A0008091A8009091A90021E030E0022C02C0BA
:1012B000220F331F0A94E2F782239323892B09F428
:1012C00054C0F4E17F2EA12CB12CC12CD12CE12CE7
:1012D000F12C00E010E061E08D8D0E94F604DC014D
:1012E0009C0140E050E060E070E0CB01AB8B3C8BB8
:1012F0004D8B5E8B6F8B788F898F9A8F40E050E09B
:1013000060E070E080E090E00E94811059016A0185
:101310007B018C01EF85F8890190F081E02DEA17BF
:10132000FB0720F4EF85F889B183A083ED85FE8566
:101330000190F081E02DAE17BF0720F4ED85FE850A
:10134000B183A0837A947110C6CFE4E1AE2EB12CA4
:10135000C12CD12CE12CF12C00E010E00E942410D3
:10136000A989BA892C9311963C93BFEF2B1A3B0A9B
:10137000E989FA893296FA8BE98B2D853E852E5FB5
:101380003F4F3E872D874F8558894E5F5F4F588B63
:101390004F8750E12516310409F081CF6ACF909133
:1013A0006603913009F065C3109266031092F00253
:1013B000809179028093F30219861A861B861C8617
:1013C000809179028B3C09F429C208F049C082312E
:1013D00009F435C140F5833009F4B0C0A8F4813078
:1013E00009F48DC008F098C08DE08093EF0283E08F
:1013F0008093F5029093F6028093F70284E0809345
:10140000F8029093F90250C3873009F405C188307F
:1014100009F407C1843009F023C3F0907B020091E6
:101420007D0210E0D8C0863109F493C130F48431D4
:1014300009F42CC108F422C14BC18A3109F4D0C18E
:1014400040F4893109F00CC388E08093EF02D89A08
:101450002BC3843809F4C9C1893C09F4CDC100C348
:10146000883D09F47BC258F5833D09F415C2A0F408
:101470008D3C09F4F9C108F4D7C1823D09F0F0C2EE
:101480008AE08093EF0280917B028093F502809145
:101490007B020E94190175C2853D09F439C208F426
:1014A00013C2863D09F448C2873D09F0D9C28AE0DB
:1014B0008093EF0285EF92E00E94FE0162C28C3DB4
:1014C00009F46EC268F48A3D09F452C208F05CC2A5
:1014D0008AE08093EF0285EF92E00E944E0251C2B3
:1014E0008D3F09F48EC220F48C3F09F473C2B8C258
:1014F0008E3F09F48BC28F3F09F48AC2B1C288E0E3
:101500008093EF020E9448070E945B07992009F42C
:10151000CBC2AD9AAE98C8C2929A0E949E01982EF4
:10152000811102C0AE98AD988AE08093EF020E94CC
:1015300071078093F5029092F602B6C2E0907B02AA
:10154000F0907D028CE08F0D8093EF0210E08E2DE5
:10155000810F0BE0010FF11651F090E00E94AF07F0
:10156000E02FF0E0E251FD4F80831F5FF0CF8091CC
:101570007B028093F50280917C028093F602809139
:101580007D028093F70280917E028093F802809121
:101590007B02811189C280917C02811185C2809178
:1015A0007D02823109F080C280917E0281117CC26D
:1015B000E9EFF2E08FEF819363E0EA30F607D9F7C5
:1015C0008AE093E00E94FE01882309F46DC28FEF48
:1015D00080930A0369C2812F8F0DEBE0E10F101792
:1015E00049F0F0E0EC58FD4F608190E00E949B07CD
:1015F0001F5FF1CF8CE08093EF0280917B0280939C
:10160000F50280917C028093F60280917D028093A6
:10161000F70280917E02DBC184E790E00E947E07A2
:1016200043C280917B02811101C0929880917B021C
:101630008111929A6092EF0280917B02DFC110913A
:101640007B02183008F017E0A20160E0812F0E94B1
:10165000CB0546E0969587954A95E1F72EE02093D5
:10166000EF021093F5021092F6028093F702909326
:10167000F8028093F9029093FA02F2C110917B0272
:10168000183008F017E0A20161E007C010917B025A
:10169000183008F017E0A20160E0812F0E94CB050E
:1016A00020E12093EF021093F5021092F602498593
:1016B0005A856B857C854093F7025093F8026093BE
:1016C000F9027093FA028093FB029093FC02C8C166
:1016D00020917C0280917B0290E0922B9093A90054
:1016E0008093A80044E552E0A2EBB0E003ED10E0E7
:1016F00020E030E061E070E0022E02C0660F771F4C
:101700000A94E2F768237923672B49F0FA011182E2
:1017100010826FEF7FEF11967C936E9303C011964A
:101720001C921E92F801118210822F5F3F4F4E5F74
:101730005F4F12960E5F1F4F20313105D9F68AE0B8
:101740008093EF0280917B028093F50280917C026E
:1017500018C12AE037ED43EA59E329873A874B87D6
:101760005C878CE68093EF024AE057ED63EA79E309
:101770004093F5025093F6026093F7027093F802DB
:10178000AEEEB2E020E0822F66E00E94101090E002
:10179000880F991FFC01EE54FF4F408131811B9649
:1017A0004C931B971C963C931C97FC01EC5AFD4FE5
:1017B000408131811D964C931D971E963C931E9738
:1017C000FC01ED52FF4F908181811F969C931F97E2
:1017D00050968C9350972A5F16962036A1F664C1D6
:1017E00088E08093EF02D8985FC16092EF02109278
:1017F000F50251E05B8F58C1692D6F77962E0E94DC
:101800004708182F882329F00E94AE08792D7068A8
:10181000972E6092EF021093F50246C16092EF029C
:1018200081E00E942203EAC08DE08093EF02809164
:101830007B028093F50280917C028093F602809176
:101840007D028093F70280917E028093F8022091BE
:101850007E0240917D0260917C0280917B020E9419
:10186000FE078093F90220C18CE08093EF02809103
:101870007B028093F50280917C028093F602809136
:101880007D028093F70240917D0260917C028091FD
:101890007B020E94E7079BC082E18093EF02809168
:1018A0007B028093F502BE016F5F7F4F0E941301A0
:1018B0008093FE02FE013196A6EFB2E081918D93F6
:1018C000E415F505D9F7F0C082E18093EF0280912D
:1018D0007B028093F50226EF32E0FE01319688E02C
:1018E00090E0BF018C010C581D4FD8014C91D901DB
:1018F0004D939D01D8014C91419301968031910502
:1019000089F78091F5020E9409018093FE02CCC004
:101910008CE08093EF0280917B028093F5026091CE
:101920007C026093F60290917D029093F70247EF5C
:1019300052E00E946E014BC08CE08093EF028091D8
:101940007B028093F50260917C026093F6024091E5
:101950007D024093F7020E943A0139C08AE08093E9
:10196000EF0280917B028093F5020E94D60109C0AC
:101970008AE08093EF0280917B028093F5020E94BF
:1019800024028093F60290C08CE08093EF0247EF30
:1019900052E066EF72E085EF92E00E94E80217C025
:1019A0008CE08093EF0280917B028093F50280911E
:1019B0007C028093F60280917D028093F702409131
:1019C0007D0260917C0280917B020E94AE02809336
:1019D000F8026AC08AE08093EF0280917B028093D4
:1019E000F5020E9424028093F602811106C08091C4
:1019F000F5020E949007882E57C08FEF8093F50262
:101A000053C01092660310927902FFCF929A28C0B9
:101A10000E9448070E945B0784E690E00E94DD0771
:101A20008BB3811108C088B3811105C085B38111C2
:101A300002C082B38111AD9AAE9812C05D9BFECFF9
:101A4000DF0191919CB99C91890FAF014E5E52408C
:101A50004217530798F35D9BFECF8CB95D9BFECF79
:101A6000AC9AAE98AD98BB8DB13019F4F8940C9443
:101A7000007880B3887090E0EC8D2E2F30E08217D4
:101A8000930781F0AC9880B3F82FF870FC8F83FD3A
:101A900002C089B802C089E189B984E690E00E9459
:101AA000DD07AC9AA895DFCB2091EF023091F002D0
:101AB00021503109EEEEF2E080E0C7CF5D9BFECF12
:101AC0008CB90895CF93DF93EC018991882319F0A5
:101AD0000E945E0DFACFDF91CF9108955058BB2739
:101AE000AA270E94860D0C941C0F0E940E0F38F03E
:101AF0000E94150F20F039F49F3F19F426F40C943E
:101B0000FB0E0EF4E095E7FB0C94F50EE92F0E9416
:101B10002D0F58F3BA17620773078407950720F053
:101B200079F4A6F50C944F0F0EF4E0950B2EBA2F16
:101B3000A02D0B01B90190010C01CA01A0011124D3
:101B4000FF27591B99F0593F50F4503E68F11A167F
:101B5000F040A22F232F342F4427585FF3CF469510
:101B600037952795A795F0405395C9F77EF41F1632
:101B7000BA0B620B730B840BBAF09150A1F0FF0FFC
:101B8000BB1F661F771F881FC2F70EC0BA0F621FE8
:101B9000731F841F48F4879577956795B795F795D8
:101BA0009E3F08F0B0CF9395880F08F09927EE0F6D
:101BB0009795879508950E94EF0D0C941C0F0E9435
:101BC000150F58F00E940E0F40F029F45F3F29F0E6
:101BD0000C94F50E51110C94500F0C94FB0E0E94B6
:101BE0002D0F68F39923B1F3552391F3951B550BF2
:101BF000BB27AA2762177307840738F09F5F5F4FE0
:101C0000220F331F441FAA1FA9F335D00E2E3AF01E
:101C1000E0E832D091505040E695001CCAF72BD036
:101C2000FE2F29D0660F771F881FBB1F2617370787
:101C30004807AB07B0E809F0BB0B802DBF01FF27B9
:101C400093585F4F3AF09E3F510578F00C94F50E93
:101C50000C94500F5F3FE4F3983ED4F3869577954C
:101C60006795B795F7959F5FC9F7880F911D969572
:101C7000879597F90895E1E0660F771F881FBB1FCE
:101C8000621773078407BA0720F0621B730B840B7B
:101C9000BA0BEE1F88F7E0950895BEE304D008F470
:101CA00090E80895BFE322273327A9010E94350F4A
:101CB00060F19F5748F1B91740F1BFE3B91B99276D
:101CC000B8503AF4660F771F881F991FB395D2F367
:101CD00016C0B8504AF0232F342F452F562F672FA8
:101CE000782F8827B850BAF7B85F49F0869577956E
:101CF00067955795479537952795BA95B9F716F48F
:101D00000E94FE0E88940895889460E070E0CB01F4
:101D100008950E94350F88F09F5798F0B92F9927A2
:101D2000B751B0F0E1F0660F771F881F991F1AF0C6
:101D3000BA95C9F714C0B13091F00E944F0FB1E0CD
:101D400008950C944F0F672F782F8827B85F39F0CC
:101D5000B93FCCF3869577956795B395D9F73EF45F
:101D600090958095709561957F4F8F4F9F4F089507
:101D7000E89409C097FB3EF4909580957095619525
:101D80007F4F8F4F9F4F9923A9F0F92F96E9BB27DB
:101D90009395F695879577956795B795F111F8CF57
:101DA000FAF4BB0F11F460FF1BC06F5F7F4F8F4FC2
:101DB0009F4F16C0882311F096E911C0772321F0B8
:101DC0009EE8872F762F05C0662371F096E8862F50
:101DD00070E060E02AF09A95660F771F881FDAF7A7
:101DE000880F9695879597F9089597F99F6780E8EA
:101DF00070E060E008959FEF80EC089590958095E5
:101E00007095609550954095309521953F4F4F4F77
:101E10005F4F6F4F7F4F8F4F9F4F089500240A945D
:101E20001616170618060906089500240A941216B5
:101E30001306140605060895092E0394000C11F4E8
:101E4000882352F0BB0F40F4BF2B11F460FF04C095
:101E50006F5F7F4F8F4F9F4F089557FD9058440FEE
:101E6000551F59F05F3F71F04795880F97FB991FF9
:101E700061F09F3F79F087950895121613061406B6
:101E8000551FF2CF4695F1DF08C016161706180643
:101E9000991FF1CF86957105610508940895E8941E
:101EA000BB2766277727CB0197F908950E94690F12
:101EB0000C941C0F0E940E0F38F00E94150F20F09A
:101EC000952311F00C94F50E0C94FB0E11240C9438
:101ED000500F0E942D0F70F3959FC1F3950F50E0A6
:101EE000551F629FF001729FBB27F00DB11D639FCC
:101EF000AA27F00DB11DAA1F649F6627B00DA11D72
:101F0000661F829F2227B00DA11D621F739FB00D17
:101F1000A11D621F839FA00D611D221F749F332787
:101F2000A00D611D231F849F600D211D822F762F20
:101F30006A2F11249F5750409AF0F1F088234AF0FD
:101F4000EE0FFF1FBB1F661F771F881F9150504069
:101F5000A9F79E3F510580F00C94F50E0C94500F9C
:101F60005F3FE4F3983ED4F3869577956795B795F0
:101F7000F795E7959F5FC1F7FE2B880F911D96950A
:101F8000879597F908950E94350FE8F09E37E8F09D
:101F90009639B8F49E3848F4672F782F8827985FD1
:101FA000F9CF86957795679593959539D0F3B62FA8
:101FB000B1706B0F711D811D20F487957795679522
:101FC00093950C94E70F0C9402100C94500F8823F7
:101FD00071F4772321F09850872B762F07C0662362
:101FE00011F499270DC09051862B70E060E02AF023
:101FF0009A95660F771F881FDAF7880F9695879551
:1020000097F908959F3F31F0915020F48795779587
:102010006795B795880F911D9695879597F90895BF
:10202000991B79E004C0991F961708F0961B881F2A
:102030007A95C9F780950895EE0FFF1F0590F491EA
:10204000E02D0994689401C0E8948F929F92CF93F9
:10205000DF930E943010DF91CF919F908F90089571
:1020600088249924F401E401B0E49F93AA279A15E7
:102070008B049C04ED05FE05CF05D007A10798F45D
:10208000AD2FDC2FCF2FFE2FE92D982C892E982FE6
:10209000872F762F652F542F432F322F2227B850AA
:1020A00031F7BF9127C01B2EBF91BB27220F331FD3
:1020B000441F551F661F771F881F991F881C991C76
:1020C000EE1FFF1FCC1FDD1FAA1FBB1F8A149B041E
:1020D000EC05FD05CE05DF05A007B10748F08A181D
:1020E0009B08EC09FD09CE09DF09A00BB10B2160AB
:1020F0001A94E1F62EF49401AF01BE01CD01000C5B
:1021000008952A0D3B1D4C1D5D1D6E1D7F1D801FFA
:10211000911F0895AEE0B0E0E0E9F0E10C944B13BC
:102120000D891E8986E08C831A8309838FEF9FE7D0
:102130009E838D83AE01475E5F4F6F89788DCE01A0
:1021400001960E94AC10EF81F885E00FF11F10821C
:102150002E96E4E00C946713ABE0B0E0E2EBF0E124
:102160000C943D136C017B018A01FC0117821682DD
:10217000838181FFCCC1CE0101963C01F6019381A0
:10218000F70193FD859193FF81917F01882309F4E5
:10219000BAC1853239F493FD859193FF81917F0116
:1021A000853229F4B60190E00E94A312E7CF912C6A
:1021B000212C312CFFE1F315D8F08B3279F038F473
:1021C000803279F08332A1F4232D20611DC08D323D
:1021D00061F0803369F4232D216016C0832D826065
:1021E000382EE32DE4603E2E2AC0F32DF8601DC08A
:1021F00037FC2DC020ED280F2A3040F08E32B9F484
:1022000036FC81C1232D2064322E19C036FE06C053
:102210008AE0989E200D1124922E11C0EAE02E9E95
:10222000200D1124222EF32DF0623F2E08C08C3693
:1022300021F4832D8068382E02C0883641F4F701DE
:1022400093FD859193FF81917F018111B3CF982FE9
:102250009F7D9554933028F40C5F1F4F9FE3998323
:102260000DC0833631F0833771F0833509F059C0E2
:1022700021C0F801808189830E5F1F4F88248394D9
:10228000912C530113C02801F2E04F0E511CF801AC
:10229000A080B18036FE03C0692D70E002C06FEFF0
:1022A0007FEFC5010E9498124C018201F32DFF7748
:1022B0003F2E16C0280122E0420E511CF801A080DA
:1022C000B18036FE03C0692D70E002C06FEF7FEF72
:1022D000C5010E948D124C01F32DF0683F2E820142
:1022E00033FC1BC0822D90E088169906B0F4B6012D
:1022F00080E290E00E94A3122A94F4CFF50137FC0B
:10230000859137FE81915F01B60190E00E94A31292
:1023100021102A9421E0821A91088114910471F706
:10232000E8C0843611F0893641F5F80137FE07C060
:1023300060817181828193810C5F1F4F08C0608131
:102340007181072E000C880B990B0E5F1F4FF32D28
:10235000FF763F2E97FF09C0909580957095619507
:102360007F4F8F4F9F4FF0683F2E2AE030E0A30150
:102370000E94DF12882E861845C0853731F4232D40
:102380002F7EB22E2AE030E025C0932D997FB92E02
:102390008F36C1F018F4883579F0B5C0803719F060
:1023A000883721F0B0C0E92FE061BE2EB4FE0DC029
:1023B000FB2DF460BF2E09C034FE0AC0292F266011
:1023C000B22E06C028E030E005C020E130E002C0B7
:1023D00020E132E0F801B7FE07C06081718182819F
:1023E00093810C5F1F4F06C06081718180E090E097
:1023F0000E5F1F4FA3010E94DF12882E8618FB2D4F
:10240000FF773F2E36FE0DC0232D2E7FA22E89147E
:1024100058F434FE0BC032FC09C0832D8E7EA82EEA
:1024200005C0B82CA32C03C0B82C01C0B92CA4FE45
:102430000FC0FE01E80DF11D8081803321F49A2D3B
:10244000997EA92E09C0A2FE06C0B394B39404C01D
:102450008A2D867809F0B394A3FC11C0A0FE06C0B3
:10246000B21488F4280C922C9B180EC0B21460F49D
:10247000B60180E290E00E94A312B394F7CFB214A9
:1024800018F42B1802C0982C212CA4FE10C0B60101
:1024900080E390E00E94A312A2FE17C0A1FC03C03B
:1024A00088E790E002C088E590E0B6010CC08A2D74
:1024B000867859F0A1FE02C08BE201C080E2A7FC41
:1024C0008DE2B60190E00E94A312891438F4B6019F
:1024D00080E390E00E94A3129A94F7CF8A94F301CC
:1024E000E80DF11D8081B60190E00E94A3128110D9
:1024F000F5CF222009F442CEB60180E290E00E949E
:10250000A3122A94F6CFF6018681978102C08FEF3D
:102510009FEF2B96E2E10C945913FC01059061505A
:1025200070400110D8F7809590958E0F9F1F0895E9
:10253000FC016150704001900110D8F78095909592
:102540008E0F9F1F08950F931F93CF93DF93FB016F
:10255000238121FD03C08FEF9FEF2CC022FF16C007
:1025600046815781248135814217530744F4A08165
:10257000B1819D012F5F3F4F318320838C93268152
:1025800037812F5F3F4F3783268314C08B01EC01C7
:10259000FB010084F185E02D0995892BE1F6D80136
:1025A00016968D919C911797019617969C938E93F2
:1025B0001697CE01DF91CF911F910F910895FA01E7
:1025C000AA27283051F1203181F1E8946F936E7F72
:1025D0006E5F7F4F8F4F9F4FAF4FB1E03ED0B4E063
:1025E0003CD0670F781F891F9A1FA11D680F791FA4
:1025F0008A1F911DA11D6A0F711D811D911DA11DB5
:1026000020D009F468943F912AE0269F11243019C4
:10261000305D3193DEF6CF010895462F4770405D5F
:102620004193B3E00FD0C9F7F6CF462F4F70405D0E
:102630004A3318F0495D31FD4052419302D0A9F769
:10264000EACFB4E0A6959795879577956795BA9563
:10265000C9F700976105710508959B01AC010A2E29
:1026600006945795479537952795BA95C9F7620F00
:10267000731F841F951FA01D08952F923F924F92A4
:102680005F926F927F928F929F92AF92BF92CF9202
:10269000DF92EF92FF920F931F93CF93DF93CDB70B
:1026A000DEB7CA1BDB0B0FB6F894DEBF0FBECDBF83
:1026B00009942A88398848885F846E847D848C8454
:1026C0009B84AA84B984C884DF80EE80FD800C815D
:1026D0001B81AA81B981CE0FD11D0FB6F894DEBF40
:0C26E0000FBECDBFED010895F894FFCFB0
:1026EC000141444325753A2025752E253475205219
:1026FC00414E47453A25752C2043414C49423A20DE
:10270C0025640A0D00CF6744332219100C08070307
:10271C000301006F1283386F1203396F1283390A69
:04272C00D7A33900F6
:00000001FF
