:100000000C9449010C9466010C9466010C946601F1
:100010000C9466010C9466010C9466010C946601C4
:100020000C9466010C9466010C9466010C94E60431
:100030000C9466010C9466010C9466010C946601A4
:100040000C9466010C9466010C9466010C94A00556
:100050000C946601E205600656065806E3055A064A
:10006000E3056406660668066A066C066E066206A6
:100070005C065E061D0D100DFF0CAC0C7C0CBE0A60
:10008000BE0A620C510CBE0ABE0ABE0ABE0ABE0AF5
:10009000BE0ABE0ABE0ABE0A2A0C640D3E0D390D08
:1000A000340DBE0ABE0ABE0ABE0ABE0ABE0ABE0A97
:1000B000BE0ABE0ABE0ABE0ABE0ABE0ABE0ABE0A00
:1000C000BE0ABE0ABE0ABE0ABE0ABE0ABE0ABE0AF0
:1000D000BE0ABE0ABE0ABE0ABE0ABE0ABE0ABE0AE0
:1000E000BE0ABE0ABE0ABE0ABE0ABE0ABE0ABE0AD0
:1000F000BE0ABE0ABE0ABE0ABE0ABE0ABE0ABE0AC0
:10010000BE0ABE0ABE0ABE0ABE0ABE0ABE0ABE0AAF
:10011000BE0ABE0ABE0ABE0ABE0ABE0ABE0ABE0A9F
:10012000BE0ABE0ABE0ABE0ABE0ABE0ABE0ABE0A8F
:10013000BE0ABE0ABE0ABE0ABE0ABE0ABE0ABE0A7F
:10014000BE0ABE0ABE0ABE0ABE0ABE0ABE0ABE0A6F
:10015000BE0ABE0ABE0ABE0ABE0ABE0ABE0ABE0A5F
:10016000BE0ABE0ABE0ABE0ABE0ABE0ABE0ABE0A4F
:10017000BE0ABE0ABE0ABE0ABE0ABE0A8C0DBE0A6E
:10018000BE0ABE0ABE0ABE0ABE0ABE0ABE0ABE0A2F
:10019000BE0ABE0ABE0ABE0ABE0ABE0ABE0ABE0A1F
:1001A000BE0ABE0ABE0ABE0ABE0ABE0ABE0ABE0A0F
:1001B000BE0ABE0ABE0ABE0ABE0ABE0ABE0ABE0AFF
:1001C000BE0ABE0ABE0ABE0ABE0ABE0ABE0ABE0AEF
:1001D000BE0ABE0ABE0ABE0ABE0ABE0ABE0ABE0ADF
:1001E000BE0ABE0ABE0ABE0ABE0ABE0ABE0ABE0ACF
:1001F000BE0ABE0ABE0ABE0ABE0ABE0ABE0ABE0ABF
:10020000BE0ABE0ABE0A700DBE0A940D0A0CE20BAD
:10021000BE0ABE0ABE0ABE0AD50BBF0B9E0B890BD7
:10022000760B6D0B620B590B4E0B410B280BBE0A64
:10023000BE0ABE0ABE0ABE0ABE0ABE0ABE0ABE0A7E
:10024000BE0ABE0ABE0ABE0ABE0ABE0ABE0ABE0A6E
:10025000BE0ABE0ABE0ABE0ABE0ABE0ABE0ABE0A5E
:10026000BE0ABE0ABE0ABE0ABE0ABE0AED0AE80AF5
:10027000BD0AC80A506C79746120416E616C6F6769
:100280002D43796672612076312E332073342E31FE
:10029000000011241FBECFE5D4E0DEBFCDBF10E0CB
:1002A000A0E6B0E0E2E6F1E202C005900D92AE37C2
:1002B000B107D9F722E0AEE7B0E001C01D92AB3E36
:1002C000B207E1F70E94FC090C94AF100C940000F7
:1002D0000F931F93CF93DF93D82F162FC42FE09146
:1002E0008000F09181000995E0917E00F0917F00FF
:1002F000612F8D2F099591E0C81390E002E09111D4
:100300001CC0E0918000F09181004C2F612F8D2F57
:100310000995E0917E00F0917F00612F8D2F099566
:1003200091E0C81390E0015051F7C81731F083E015
:10033000DF91CF911F910F91089580E0DF91CF91D0
:100340001F910F910895FF920F931F93CF93DF9307
:10035000F82E8B01D0E0C0E0E0917E00F0917F00AC
:100360006C2F8F2D0995F8014081841741F06C2F77
:100370008F2D0E94680181110FC0F8014081D40FB8
:10038000CF5F0F5F1F4FC83039F74D2F68E08F2DBB
:100390000E946801882339F083E0DF91CF911F919B
:1003A0000F91FF9008954D2F409569E08F2D0E9489
:1003B00068018111F1CFF1CFFF920F931F93CF937B
:1003C000DF93F82E8B01D0E0C0E0E0917E00F09149
:1003D0007F006C2F8F2D0995F80181938F01D80F25
:1003E000CF5FC83091F7E0917E00F0917F0068E028
:1003F0008F2D0995D81739F082E0DF91CF911F91A9
:100400000F91FF900895E0917E00F0917F0069E0E8
:100410008F2D0995D095D813EFCF80E0EECF909334
:1004200081008093800070937F0060937E00089528
:10043000823020F0843020F081E0089584E0089537
:100440000C94A301843010F40C94DC0181E0089535
:10045000CF93DF93CDB7DEB728970FB6F894DEBF02
:100460000FBECDBFFE01319698E0DF011D929A9537
:10047000E9F7843050F081E028960FB6F894DEBF9B
:100480000FBECDBFDF91CF910895BF010E94A301A0
:10049000F3CFFF920F931F93CF93DF93CDB7DEB7C8
:1004A00028970FB6F894DEBF0FBECDBF683010F4AA
:1004B000843068F081E028960FB6F894DEBF0FBE56
:1004C000CDBFDF91CF911F910F91FF900895F42E32
:1004D000162F082FBE016F5F7F4F0E94DC01811134
:1004E000EACFE1E0F0E0EC0FFD1FE10FF11DF0823B
:1004F000023038F0BE016F5F7F4F802F0E94A30152
:10050000DACF84E0D8CFEF92FF921F93CF93DF939F
:10051000CDB7DEB728970FB6F894DEBF0FBECDBFBC
:10052000683010F4843068F081E028960FB6F894B3
:10053000DEBF0FBECDBFDF91CF911F91FF90EF9037
:1005400008957A01162FBE016F5F7F4F0E94DC0174
:100550008111EBCFE1E0F0E0EC0FFD1FE10FF11DA9
:100560009081F7019083E1CFCF92DF92FF920F93BA
:100570001F93CF93DF93CDB7DEB728970FB6F894CC
:10058000DEBF0FBECDBF00E010E0F12CCC24C39441
:10059000D12CBE016F5F7F4F802F0E94DC0188232A
:1005A00039F0C601002E01C0880F0A94EAF7F82A34
:1005B0000F5F1F4F0330110561F78F2D28960FB67F
:1005C000F894DEBF0FBECDBFDF91CF911F910F9189
:1005D000FF90DF90CF9008951F93CF93DF93CDB717
:1005E000DEB728970FB6F894DEBF0FBECDBF8111DE
:1005F0000BC081E028960FB6F894DEBF0FBECDBFCA
:10060000DF91CF911F910895182FBE016F5F7F4F2B
:1006100080E00E94DC018111EDCF1983BE016F5F84
:100620007F4F0E94A301E6CF0F931F93CF93DF93D9
:10063000CDB7DEB728970FB6F894DEBF0FBECDBF9B
:100640008C01BE016F5F7F4F80E00E94DC019981C9
:10065000F8019083811103C081E091110BC02896AD
:100660000FB6F894DEBF0FBECDBFDF91CF911F91C3
:100670000F91089580E0F3CF1F93CF93DF93CDB711
:10068000DEB728970FB6F894DEBF0FBECDBF9FEF41
:10069000980F9E3058F081E028960FB6F894DEBF90
:1006A0000FBECDBFDF91CF911F910895182FBE01CE
:1006B0006F5F7F4F80E00E94DC018111EDCF1A83D4
:1006C000BE016F5F7F4F0E94A301E6CF0F931F9380
:1006D000CF93DF93CDB7DEB728970FB6F894DEBF80
:1006E0000FBECDBF8C01BE016F5F7F4F80E00E94C7
:1006F000DC019A81F8019083811103C081E091119E
:100700000BC028960FB6F894DEBF0FBECDBFDF91A9
:10071000CF911F910F91089580E0F3CFFF920F9337
:100720001F93CF93DF93CDB7DEB728970FB6F8941A
:10073000DEBF0FBECDBF9FEF940F9336E0F49FEF67
:10074000960F9C30C0F49FEF980F9F31A0F4142FA8
:10075000062FF82EBE016F5F7F4F80E00E94DC0104
:1007600081110AC0FE820F831887BE016F5F7F4F21
:100770000E94A30101C081E028960FB6F894DEBF65
:100780000FBECDBFDF91CF911F910F91FF900895C4
:10079000CF92DF92EF92FF920F931F93CF93DF934D
:1007A000CDB7DEB728970FB6F894DEBF0FBECDBF2A
:1007B0006C017B018A01BE016F5F7F4F80E00E9468
:1007C000DC019E81F60190832F81F701208338851B
:1007D000F8013083811107C081E0992321F02223A1
:1007E00011F031110FC028960FB6F894DEBF0FBE7E
:1007F000CDBFDF91CF911F910F91FF90EF90DF90D0
:10080000CF90089580E0EFCFFF920F931F93CF9387
:10081000DF93CDB7DEB728970FB6F894DEBF0FBED3
:10082000CDBF9FEF940F9336E0F49FEF960F9C306F
:10083000C0F49FEF980F9F31A0F4142F062FF82ECD
:10084000BE016F5F7F4F80E00E94DC0181110AC012
:10085000FB820C831D83BE016F5F7F4F0E94A3014B
:1008600001C081E028960FB6F894DEBF0FBECDBF61
:10087000DF91CF911F910F91FF900895CF92DF925A
:10088000EF92FF920F931F93CF93DF93CDB7DEB715
:1008900028970FB6F894DEBF0FBECDBF6C017B0169
:1008A0008A01BE016F5F7F4F80E00E94DC019B8167
:1008B000F60190832C81F70120833D81F80130837C
:1008C000811107C081E0992321F0222311F0311119
:1008D0000FC028960FB6F894DEBF0FBECDBFDF91D4
:1008E000CF911F910F91FF90EF90DF90CF900895DF
:1008F00080E0EFCF1F93CF93DF93CDB7DEB728977C
:100900000FB6F894DEBF0FBECDBF833058F081E044
:1009100028960FB6F894DEBF0FBECDBFDF91CF9102
:100920001F910895182FBE016F5F7F4F81E00E94D5
:10093000DC018111EDCF1983BE016F5F7F4F81E034
:100940000E94A301E5CF0F931F93CF93DF93CDB701
:10095000DEB728970FB6F894DEBF0FBECDBF8C016F
:10096000BE016F5F7F4F81E00E94DC019981F80139
:100970009083811103C081E091110BC028960FB6BE
:10098000F894DEBF0FBECDBFDF91CF911F910F91C5
:10099000089580E0F3CF70E09AE0899F600D711DAB
:1009A0001124E199FECF7FBB6EBBE09A8DB3089511
:1009B00070E09AE0899F600D711D1124E199FECFCE
:1009C0007FBB6EBB4DBBE29AE19A08951F920F92D6
:1009D0000FB60F9211242F934F935F938F939F9392
:1009E000EF93FF932CB18091840290918502AC012A
:1009F0004F5F5F4F5093850240938402FC01E251A8
:100A0000FE4F20838091ED01820F8093ED01AC9821
:100A10008091840290918502019709F487C08091AA
:100A2000840290918502029709F472C08091840239
:100A300090918502039709F453C04091840250912C
:100A4000850280918A0090918B004817590761F0C8
:100A5000FF91EF919F918F915F914F912F910F9007
:100A60000FBE0F901F901895109285001092840071
:100A7000109287008091ED01821B8093ED0190918F
:100A8000F10180918900981791F09091F101809186
:100A90008800981761F08091F1018F3F41F0AC9A86
:100AA0001092ED011092850210928402D1CF8091B4
:100AB000F201833021F08091F2018111F0CFE091B9
:100AC0008402F0918502E351FE4F90818091ED0107
:100AD0009813E5CF81E08093EA02AE9AAD98E0CF1B
:100AE00080918A0090918B00922B90938B00809341
:100AF0008A0080918A0090918B008739910508F4D3
:100B00009CCF86E990E090938B0080938A0095CFEC
:100B1000109285001092840081E080938700822FDC
:100B200090E090938B0080938A0080CF253509F464
:100B300076CF1092ED0110928502109284026FCF51
:100B40001F920F920FB60F9211248F939F93809153
:100B50008700882301F1809184009091850001969F
:100B6000909385008093840080918400909185000B
:100B70000A9788F0109285001092840010928700E6
:100B800010928B0010928A001092ED011092850253
:100B900010928402AC9A9F918F910F900FBE0F908C
:100BA0001F9018950F931F93613009F47DC050E09A
:100BB000082F10E00031110530F4F801E65DFF4F19
:100BC0000C9441108CE0F8948830D8F520E2829F94
:100BD000C0011124852BC4988FB981E080938600D1
:100BE00004C080918600882311F0779BFACF1FB84C
:100BF00081E08093860004C080918600882311F0F4
:100C0000779BFACF2FB11FB881E08093860004C094
:100C100080918600882311F0779BFACF8FB1C49A18
:100C200090E0922B78944A3049F40024880F991F61
:100C3000001C880F991F001C892F902D1F910F9168
:100C40000895803170F5982F9295990F907E892F95
:100C5000852BC3988FB981E08093860004C0809172
:100C60008600882311F0779BFACF1FB881E080932C
:100C7000860004C080918600882311F0779BFACF0C
:100C80002FB11FB881E08093860004C08091860058
:100C9000882311F0779BFACF8FB1C39A90E0922B03
:100CA000C1CF80E090E0BECF56E082CF8EE08BCF08
:100CB00089E089CF82E087CF87E085CF80E083CF4E
:100CC0008AE081CF83E07FCF81E07DCF8DE07BCF55
:100CD0008BE079CF8FE077CF88E075CF85E073CF59
:100CE00084B38F6084BBAA9AAA98AA9A0895AB018C
:100CF000BC01F89481E210C0AB9A95E09A95F1F7A7
:100D00000000A998769567955795479595E09A952F
:100D1000F1F70000815049F0A99A95E09A95F1F712
:100D2000000040FDE9CFAB98E8CFA89A85E08A950E
:100D3000F1F70000A898789408950F931F93962FC9
:100D40008830F0F128EF280F283048F08FE193E049
:100D50000197F1F700C000001F910F9108952FE057
:100D600030E0A901481B5109440F4F5F241B310992
:100D7000220F331F43E050E060E070E0022E04C019
:100D8000440F551F661F771F0A94D2F74095509560
:100D900060957095892F90E0A0E0B0E004C0880FC6
:100DA000991FAA1FBB1F2A95D2F78A019B01082B06
:100DB000192B2A2B3B2BC901B8010E947706C6CFFD
:100DC00027E030E0281B3109822F880F2FE030E028
:100DD000281B3109CDCF2F923F924F925F926F9295
:100DE0007F928F929F92AF92BF92CF92DF92EF92BB
:100DF000FF920F931F93CF93DF9300D000D01F92E9
:100E0000CDB7DEB789836A835C834B8363E00E943E
:100E10009D0683E0EB81FC8180839AE0692E712C32
:100E2000412C512C812C912C1D821B82212C312C88
:100E300040E16A8189810E94D2059C0140E050E036
:100E400060E070E080E090E052016401ED80FB80A2
:100E500081010E94A61029014A016D837B831C0138
:100E60008FE193E00197F1F700C0000091E0691A6B
:100E70007108F1F68AE0A82EB12CC12CD12CE12CFE
:100E8000F12C00E010E09201A4016D817B81C10191
:100E90000E944910C9010F900F900F900F900F9072
:100EA000DF91CF911F910F91FF90EF90DF90CF9046
:100EB000BF90AF909F908F907F906F905F904F907A
:100EC0003F902F9008952F923F924F925F926F9292
:100ED0007F928F929F92AF92BF92CF92DF92EF92CA
:100EE000FF920F931F93CF93DF93CDB7DEB72F976A
:100EF0000FB6F894DEBF0FBECDBF8A83F62E5F8398
:100F00004E8383E089839091F10180918900981745
:100F100009F4B9C09091F10180918800981709F403
:100F2000C9C09AE0492E97ED592E93EA692E99E3AC
:100F3000792E212C312C00E010E0F11080C0C1018D
:100F4000A0E0B0E088879987AA87BB87BC01CD0164
:100F50000E94F90E4B015C019B01AC01C301B2017F
:100F60000E94870F0E94CA0E6B017C019A81090FB3
:100F7000111D86E1809FF001819FF00D1124E35740
:100F8000FF4FEC0DFD1D1081618170E0611B710947
:100F9000072E000C880B990B0E94FB0EA3019201F7
:100FA0000E94870F6A837B838C839D83612F70E00F
:100FB00080E090E00E94F90E6C877D878E879F8786
:100FC000B60180E090E00E94F90EA30192010E9418
:100FD000580E2A813B814C815D810E94870F9B01C5
:100FE000AC016C857D858E859F850E94EB0D6B0124
:100FF0007C012A813B814C815D81C501B4010E9445
:10100000870F9B01AC01C701B6010E94EC0D0E9445
:10101000F40F0E94CA0E88859985AA85BB85860F24
:10102000911DA11DB11D8F379105A105B10540F19D
:101030000097A140B105C0F122242A94322CAE8140
:10104000BF814D925D926D927C921397C1012F9654
:101050000FB6F894DEBF0FBECDBFDF91CF911F91C9
:101060000F91FF90EF90DF90CF90BF90AF909F9047
:101070008F907F906F905F904F903F902F9008954A
:10108000212C312CDCCFAE014F5F5F4F61E08A81B4
:101090000E94EB061C0100E010E0E981E430A8F0BA
:1010A000412C512C320149CFFFE72F1A3108260E6F
:1010B000311CC5CFAE014F5F5F4F61E08A810E9456
:1010C000EB061C0108E010E0E8CF24E0E29FF0010D
:1010D0001124E259FF4F40805180628073802DCFF0
:1010E00087B3886187BB88B3886188BB87B3806A10
:1010F00087BB83E58DB908958FB981E08093860021
:1011000004C080918600882311F0779BFACF089560
:101110001FB881E08093860004C0809186008823F8
:1011200011F0779BFACF8FB10895D09AD89A84B3F3
:10113000806784BBAC9A81B3866081BB82B38A60CE
:1011400082BB81B38F7081BB82B3806F82BB0895F5
:1011500084B38F6084BBAA9AAA98AA9A87B388613D
:1011600087BB88B3886188BB87B3806A87BB83E508
:101170008DB989B7826089BF83B78B6083BF8AEFDF
:101180008CBF08958AB188698AB980B5866880BDA8
:1011900089E189B9089584B7817004B602FC826040
:1011A00004B603FC846004B601FC886014BE089594
:1011B0009C012F5F3F4FFC018491882399F0F90136
:1011C00097E001C0922F21E0290FA92FB0E0AA5784
:1011D000BD4F8C93849131968111F4CF9E5F909393
:1011E0008702089598E0FBCF81508E3030F4E82FCD
:1011F000F0E0E05AFF4F8081089589E10895E19978
:10120000FECF9FBB8EBB6DBBE29AE19A0895AC0105
:1012100023E0E199FECF5FBB4EBB6DBBE29AE19A42
:101220009CB3892F827091FDFBCF5FBB4EBBE09AD0
:101230009DB3215019F06913ECCF089581E0691333
:10124000089580E00895E199FECF9FBB8EBBE09AA0
:101250008DB308950197F1F70895009739F020EACA
:101260003FE0F9013197F1F70197D9F708958031FF
:1012700010F4663110F081E00895262F36E1839F47
:10128000C0011124C296642F820F911D0E9407098C
:10129000882311F083E0089508950F931F93CF934F
:1012A000DF93E2E3F0E0C0E0E199FECFFFBBEEBBED
:1012B000E09A9DB3C90F3196E23991E0F907A1F7A1
:1012C000C81739F0C2E08C2FDF91CF911F910F9199
:1012D0000895D22F142F062F6C2F82E991E00E94DF
:1012E0000709882339F0C3E08C2FDF91CF911F913C
:1012F0000F9108956C2F609583E991E00E94070992
:10130000C82F8111F0CF402F612F8D2F0E948E03A7
:10131000813049F0882371F0C5E08C2FDF91CF91A7
:101320001F910F910895C1E08C2FDF91CF911F91F4
:101330000F91089581E00E947A048111EDCF8C2FE6
:10134000DF91CF911F910F910895CF93DF931F925B
:10135000CDB7DEB7CE0101960E94A304823028F0FB
:1013600085E00F90DF91CF910895813039F0898128
:10137000823049F0813049F080E0F3CF82E00E9472
:101380007A048111EDCF86E0ECCF82E390E020E09B
:10139000FC01E55AFF4FBC016A5E7F4FAC014F5F15
:1013A0005F4FE199FECF9FBB8EBBE09A8DB3280FB4
:1013B0008193CA014617570789F74239514041F7CF
:1013C000E199FECF82E991E09FBB8EBBE09A8DB39D
:1013D00028130BC02095E199FECF83E991E09FBBD4
:1013E0008EBBE09A8DB3281739F282E00E947A040E
:1013F0008111B6CF82E0B5CFCF93DF93CDB7DEB703
:101400002D970FB6F894DEBF0FBECDBFA8956BEC3D
:1014100074E088ED94E00E940F0284EF91E020EAEE
:101420003FE0F9013197F1F70197D9F70E9495084C
:101430000E94A8088AB188698AB980B5866880BD8B
:1014400089E189B9A89585B7816085BF15BE0E94DD
:10145000B402D82E80FF84C313E0B12EFE01319672
:101460004F010E94A509882391F0EDE8F0E04DEED0
:1014700051E08FE79F012A5E3F4F8193E217F30708
:10148000E1F74E175F07B1F7FD2DF068DF2E849B63
:1014900005C080918900806280938900859B05C08A
:1014A00080918900806180938900869B05C080912E
:1014B000890088608093890087994CC38091890056
:1014C00081608093880085E58093860283E0809325
:1014D0008A0210928C026FEF7FEFCB010E94770699
:1014E00078941D86EE24E394F12C00EA1FE06AE074
:1014F000A62E79E1672EECE07E2EF2E14F2EADEEC6
:101500002A2EA1E03A2EBFE7CB2EDD2011F0AD9AB6
:10151000AE988091EA028130D9F080B3887090E073
:101520008E159F0589F0AC9880B3282F287083FD15
:101530000DC0B9B884E690E0F8013197F1F7019752
:10154000D9F7AC9AE22EF12CA895DFCF69B8F2CF8B
:101550001092EA02109288029091F30190938B020C
:1015600019861A861B861C86E091F3014E2F50E0E7
:10157000FA01E65CFF4F0C944110929AAC9AAE9837
:10158000AD983D85313049F6F8940C940078C5CF7C
:101590000E9495080E94A80884E690E0F80131971F
:1015A000F1F70197D9F78BB3811108C088B3811186
:1015B00005C085B3811102C082B38111AD9AAE9886
:1015C000AC9AAE98AD983D85313009F0A6CFDCCF0E
:1015D0001092EA021092F301FFCFA092870280914D
:1015E000F50180938D020E943C0380938E0281114D
:1015F000ADC2E0918D02E150EE3008F0A4C2F0E0FF
:10160000E05AFF4FB080209187023091880221502C
:10161000310909F492C2E6E8F2E080E090E040E0AF
:101620005D9BFECFDF0151915CB95C91450F019646
:1016300082179307A8F35D9BFECF4CB95D9BFECF4D
:10164000AC9AAE98AD983D85313009F066CF9CCF0D
:10165000709287028091F50180938D028091F6014E
:1016600080938E028091F70180938F024091F70161
:101670006091F6018091F5010E940404809390022C
:10168000C2CF709287024FE852E06EE872E08DE8B8
:1016900092E00E943E0480939002B5CFA092870210
:1016A0008091F50180938D020E943C0380938E020D
:1016B000AACFA09287028DE892E00E9466038093F1
:1016C0008E02A1CFA09287028091F50180938D02B6
:1016D0000E94EC0280938E0296CFA09287028DE842
:1016E00092E00E94140380938E028DCF7092870245
:1016F0008091F50180938D026091F60160938E02D6
:101700004091F70140938F020E944902809390021A
:101710007ACF709287028091F50180938D0260915B
:10172000F60160938E029091F70190938F024FE83B
:1017300052E00E9483028093900265CF409287021C
:101740008091F50180938D02AEE8B2E088E090E0F0
:10175000B4019C0122513E4FF90140814D932081FB
:10176000FB012193BF0101968031910591F7B401EE
:1017700080918D020E9418028093960244CF40927D
:1017800087028091F50180938D02B4010E942202AC
:1017900080939602D401EEE8F2E08D91819386E980
:1017A00092E08E179F07C9F72ECFA09287028091F3
:1017B000F50180938D028091F5010E9428028093AB
:1017C0008E0221CF709287029091F50190938D0245
:1017D0009091F60190938E029091F70190938F0271
:1017E0006091F7012091F6019091F501903108F098
:1017F00045CF263108F042CF36E1939FC001112436
:10180000C296820F911D0E940709882309F436CFE2
:1018100083E034CF8DE0809387028091F50180933F
:101820008D028091F60180938E028091F701809362
:101830008F028091F801809390022091F8014091ED
:10184000F7016091F6018091F5010E944D098093A6
:101850009102D9CE5090F501F7E0F51510F447E06C
:10186000542EAE01475F5F4F60E0852D0E946307F5
:101870000024880F991F001C880F991F001C892FB6
:10188000902D2EE02093870250928D0210928E02AE
:1018900080938F0290939002809391029093920292
:1018A000B2CE8091F501811101C092988091F5012D
:1018B0008111929A89E0809387028091F50180934B
:1018C0008D02A1CEE4E7F2E09491992309F439C1A5
:1018D000E5E7F2E087E001C0822F21E0280FA82F82
:1018E000B0E0AA57BD4F9C93949131969111F4CFDB
:1018F0008E5F8093870287CE8091F5019091F701EA
:101900009923B9F02BE0290FEBE031E03E0FF0E036
:10191000E251FE4F508141E0480F90E0E199FECF47
:101920009FBB8EBB5DBBE29AE19A842FE32F3213FB
:10193000ECCF709287028091F50180938D028091A7
:10194000F60180938E028091F70180938F0280913F
:10195000F8018093900257CE2091F5018091F70114
:101960009CE0980F909387028823A9F0855FEBE0B5
:1019700091E09E0FF0E041E0420F30E0E199FECFB0
:101980003FBB2EBBE09A2DB3EA57FD4F2083242F97
:10199000E92F9813EDCF8091F50180938D0280910E
:1019A000F60180938E028091F70180938F028091DF
:1019B000F801809390028091F501811124CE8091ED
:1019C000F601811120CE8091F701823109F01BCE02
:1019D0008091F801811117CEE1E9F2E03FEF3193F8
:1019E00082E0E23AF807D1F782EA92E00E9414031B
:1019F000882309F408CE8FEF8093A20204CE929A36
:101A00000E94B402D82E811102C0AE98AD98A09267
:101A100087020E94CB0880938D02D0928E02F3CD74
:101A200088E0809387020E9495080E94A808DD2024
:101A300009F4E9CDAD9AAE98E6CD8DE080938702AA
:101A400093E090938D0281E080938E0290938F02B9
:101A500094E09093900280939102209187023091BC
:101A6000880221503109D7CD88E080938702D89829
:101A7000CACD88E080938702D89AC5CD5090F501F1
:101A800087E0851510F497E0592EAE01475F5F4F50
:101A900060E0852D0E94630720E120938702509229
:101AA0008D0210928E0249855A856B857C85409304
:101AB0008F025093900260939102709392028093F0
:101AC0009302909394029FCD5090F50137E0351525
:101AD00010F427E0522EAE01475F5F4F61E0D9CF8F
:101AE000ED2DEF77DE2E0E94A509882379F0EDE831
:101AF000F0E09F012A5E3F4FC192E217F307E1F742
:101B00002E163F06B1F7FD2DF068DF2E99E0909379
:101B1000870280938D0277CD89E0809387021092AF
:101B20008D0291E09D8799CF89E08093870281E0C3
:101B30000E947A0480938D0266CD40E05D9B7BCD50
:101B40007CCD88E0D6CE89E1B82E5DCDFFEFF09355
:101B50008D0259CD80918900846080938900AECC3C
:101B6000CE0101964C010E946603E981E150EE30FE
:101B700028F4F0E0E05AFF4FB08073CC09E1B02EBA
:101B800070CCEDE8F0E04DEE51E02FE7CF01469646
:101B90002193E817F907E1F74E175F07B9F70895A2
:101BA00010BC89B988E18AB98EE880BD08955D9B33
:101BB000FECF8CB908955F9BFECF8CB10895FC01D8
:101BC0009081992339F031965D9BFECF9CB991911C
:101BD0009111FACF08955058BB27AA270E94030EEF
:101BE0000C944D0F0E943F0F38F00E94460F20F0DA
:101BF00039F49F3F19F426F40C943C0F0EF4E09551
:101C0000E7FB0C94360FE92F0E945E0F58F3BA17CA
:101C1000620773078407950720F079F4A6F50C9402
:101C2000800F0EF4E0950B2EBA2FA02D0B01B901F9
:101C300090010C01CA01A0011124FF27591B99F042
:101C4000593F50F4503E68F11A16F040A22F232F4E
:101C5000342F4427585FF3CF469537952795A7959E
:101C6000F0405395C9F77EF41F16BA0B620B730B45
:101C7000840BBAF09150A1F0FF0FBB1F661F771FB6
:101C8000881FC2F70EC0BA0F621F731F841F48F46B
:101C9000879577956795B795F7959E3F08F0B0CFF4
:101CA0009395880F08F09927EE0F979587950895DB
:101CB0000E946C0E0C944D0F0E94460F58F00E942B
:101CC0003F0F40F029F45F3F29F00C94360F51117B
:101CD0000C94810F0C943C0F0E945E0F68F39923C3
:101CE000B1F3552391F3951B550BBB27AA27621718
:101CF0007307840738F09F5F5F4F220F331F441F25
:101D0000AA1FA9F335D00E2E3AF0E0E832D0915058
:101D10005040E695001CCAF72BD0FE2F29D0660F45
:101D2000771F881FBB1F261737074807AB07B0E888
:101D300009F0BB0B802DBF01FF2793585F4F3AF08E
:101D40009E3F510578F00C94360F0C94810F5F3F45
:101D5000E4F3983ED4F3869577956795B795F79514
:101D60009F5FC9F7880F911D9695879597F90895FC
:101D7000E1E0660F771F881FBB1F62177307840798
:101D8000BA0720F0621B730B840BBA0BEE1F88F7A7
:101D9000E09508950E94660F88F09F5798F0B92F3C
:101DA0009927B751B0F0E1F0660F771F881F991F90
:101DB0001AF0BA95C9F714C0B13091F00E94800FA3
:101DC000B1E008950C94800F672F782F8827B85FB3
:101DD00039F0B93FCCF3869577956795B395D9F7E8
:101DE0003EF490958095709561957F4F8F4F9F4FF2
:101DF0000895E89409C097FB3EF4909580957095FE
:101E000061957F4F8F4F9F4F9923A9F0F92F96E946
:101E1000BB279395F695879577956795B795F111BB
:101E2000F8CFFAF4BB0F11F460FF1BC06F5F7F4F58
:101E30008F4F9F4F16C0882311F096E911C077236A
:101E400021F09EE8872F762F05C0662371F096E873
:101E5000862F70E060E02AF09A95660F771F881F42
:101E6000DAF7880F9695879597F9089597F99F6700
:101E700080E870E060E008959FEF80EC0895002412
:101E80000A941616170618060906089500240A94DF
:101E900012161306140605060895092E0394000C65
:101EA00011F4882352F0BB0F40F4BF2B11F460FFF4
:101EB00004C06F5F7F4F8F4F9F4F089557FD90581D
:101EC000440F551F59F05F3F71F04795880F97FBFE
:101ED000991F61F09F3F79F08795089512161306B8
:101EE0001406551FF2CF4695F1DF08C016161706E7
:101EF0001806991FF1CF869571056105089408951C
:101F0000E894BB2766277727CB0197F908950E94AD
:101F10009A0F0C944D0F0E943F0F38F00E94460F0D
:101F200020F0952311F00C94360F0C943C0F1124E3
:101F30000C94810F0E945E0F70F3959FC1F3950F73
:101F400050E0551F629FF001729FBB27F00DB11D3D
:101F5000639FAA27F00DB11DAA1F649F6627B00DCD
:101F6000A11D661F829F2227B00DA11D621F739FB6
:101F7000B00DA11D621F839FA00D611D221F749FC4
:101F80003327A00D611D231F849F600D211D822F0B
:101F9000762F6A2F11249F5750409AF0F1F0882332
:101FA0004AF0EE0FFF1FBB1F661F771F881F91505F
:101FB0005040A9F79E3F510580F00C94360F0C94C9
:101FC000810F5F3FE4F3983ED4F38695779567954C
:101FD000B795F795E7959F5FC1F7FE2B880F911D89
:101FE0009695879597F908950E94660FE8F09E37B9
:101FF000E8F09639B8F49E3848F4672F782F882790
:10200000985FF9CF86957795679593959539D0F335
:10201000B62FB1706B0F711D811D20F487957795D8
:10202000679593950C9418100C9433100C94810FB1
:10203000882371F4772321F09850872B762F07C0DF
:10204000662311F499270DC09051862B70E060E053
:102050002AF09A95660F771F881FDAF7880F9695F2
:10206000879597F908959F3F31F0915020F4879517
:1020700077956795B795880F911D9695879597F9F0
:102080000895EE0FFF1F0590F491E02D09946894D8
:1020900001C0E8948F929F92CF93DF930E945510D6
:1020A000DF91CF919F908F90089588249924F40117
:1020B000E401B0E49F93AA279A158B049C04ED05D4
:1020C000FE05CF05D007A10798F4AD2FDC2FCF2F49
:1020D000FE2FE92D982C892E982F872F762F652F8C
:1020E000542F432F322F2227B85031F7BF9127C0EA
:1020F0001B2EBF91BB27220F331F441F551F661F86
:10210000771F881F991F881C991CEE1FFF1FCC1F6B
:10211000DD1FAA1FBB1F8A149B04EC05FD05CE051D
:10212000DF05A007B10748F08A189B08EC09FD09F4
:10213000CE09DF09A00BB10B21601A94E1F62EF451
:102140009401AF01BE01CD01000C08952A0D3B1D85
:102150004C1D5D1D6E1D7F1D801F911F0895F894FD
:02216000FFCFAF
:10216200CF6744332219100C0807030301006F12D2
:0E21720083386F1203396F1283390AD7A339ED
:00000001FF
